{
  "contractName": "RockPaperScissors",
  "abi": [
    {
      "inputs": [],
      "payable": false,
      "stateMutability": "nonpayable",
      "type": "constructor"
    },
    {
      "anonymous": false,
      "inputs": [
        {
          "indexed": true,
          "internalType": "uint256",
          "name": "_id",
          "type": "uint256"
        },
        {
          "indexed": true,
          "internalType": "address",
          "name": "_challengeCreator",
          "type": "address"
        },
        {
          "indexed": true,
          "internalType": "address",
          "name": "_challenger",
          "type": "address"
        },
        {
          "indexed": false,
          "internalType": "string",
          "name": "_challengerChoice",
          "type": "string"
        },
        {
          "indexed": false,
          "internalType": "string",
          "name": "_challengeCreatorChoice",
          "type": "string"
        },
        {
          "indexed": false,
          "internalType": "address",
          "name": "_winner",
          "type": "address"
        },
        {
          "indexed": false,
          "internalType": "uint256",
          "name": "_price",
          "type": "uint256"
        }
      ],
      "name": "LogChallenge",
      "type": "event"
    },
    {
      "anonymous": false,
      "inputs": [
        {
          "indexed": true,
          "internalType": "uint256",
          "name": "_id",
          "type": "uint256"
        },
        {
          "indexed": true,
          "internalType": "address",
          "name": "_challengeCreator",
          "type": "address"
        },
        {
          "indexed": false,
          "internalType": "uint256",
          "name": "_price",
          "type": "uint256"
        }
      ],
      "name": "LogPostChallenge",
      "type": "event"
    },
    {
      "constant": true,
      "inputs": [
        {
          "internalType": "uint256",
          "name": "",
          "type": "uint256"
        }
      ],
      "name": "challenges",
      "outputs": [
        {
          "internalType": "uint256",
          "name": "id",
          "type": "uint256"
        },
        {
          "internalType": "address payable",
          "name": "challengeCreator",
          "type": "address"
        },
        {
          "internalType": "address payable",
          "name": "challenger",
          "type": "address"
        },
        {
          "internalType": "string",
          "name": "challengeCreatorChoice",
          "type": "string"
        },
        {
          "internalType": "string",
          "name": "challengerChoice",
          "type": "string"
        },
        {
          "internalType": "address",
          "name": "winner",
          "type": "address"
        },
        {
          "internalType": "uint256",
          "name": "price",
          "type": "uint256"
        }
      ],
      "payable": false,
      "stateMutability": "view",
      "type": "function"
    },
    {
      "constant": false,
      "inputs": [
        {
          "internalType": "string",
          "name": "_choice",
          "type": "string"
        },
        {
          "internalType": "uint256",
          "name": "_price",
          "type": "uint256"
        }
      ],
      "name": "createChallenge",
      "outputs": [],
      "payable": false,
      "stateMutability": "nonpayable",
      "type": "function"
    },
    {
      "constant": true,
      "inputs": [],
      "name": "getNumberOfChallenges",
      "outputs": [
        {
          "internalType": "uint256",
          "name": "",
          "type": "uint256"
        }
      ],
      "payable": false,
      "stateMutability": "view",
      "type": "function"
    },
    {
      "constant": true,
      "inputs": [],
      "name": "getChallengesStillAvailable",
      "outputs": [
        {
          "internalType": "uint256[]",
          "name": "",
          "type": "uint256[]"
        }
      ],
      "payable": false,
      "stateMutability": "view",
      "type": "function"
    },
    {
      "constant": false,
      "inputs": [
        {
          "internalType": "uint256",
          "name": "_id",
          "type": "uint256"
        },
        {
          "internalType": "string",
          "name": "_choice",
          "type": "string"
        }
      ],
      "name": "acceptChallenge",
      "outputs": [],
      "payable": true,
      "stateMutability": "payable",
      "type": "function"
    }
  ],
  "bytecode": "0x608060405234801561001057600080fd5b5060008054336001600160a01b0319918216811783556001805490921617905561159090819061004090396000f3fe60806040526004361061004a5760003560e01c80635822780a1461004f57806387ce2ada146100fe5780638f1d37761461012557806398c9f1df14610286578063e25010a51461033b575b600080fd5b6100fc6004803603604081101561006557600080fd5b8135919081019060408101602082013564010000000081111561008757600080fd5b82018360208201111561009957600080fd5b803590602001918460018302840111640100000000831117156100bb57600080fd5b91908080601f0160208091040260200160405190810160405280939291908181526020018383808284376000920191909152509295506103a0945050505050565b005b34801561010a57600080fd5b50610113611048565b60408051918252519081900360200190f35b34801561013157600080fd5b5061014f6004803603602081101561014857600080fd5b503561104f565b60405180888152602001876001600160a01b03166001600160a01b03168152602001866001600160a01b03166001600160a01b031681526020018060200180602001856001600160a01b03166001600160a01b03168152602001848152602001838103835287818151815260200191508051906020019080838360005b838110156101e45781810151838201526020016101cc565b50505050905090810190601f1680156102115780820380516001836020036101000a031916815260200191505b50838103825286518152865160209182019188019080838360005b8381101561024457818101518382015260200161022c565b50505050905090810190601f1680156102715780820380516001836020036101000a031916815260200191505b50995050505050505050505060405180910390f35b34801561029257600080fd5b506100fc600480360360408110156102a957600080fd5b8101906020810181356401000000008111156102c457600080fd5b8201836020820111156102d657600080fd5b803590602001918460018302840111640100000000831117156102f857600080fd5b91908080601f01602080910402602001604051908101604052809392919081815260200183838082843760009201919091525092955050913592506111b4915050565b34801561034757600080fd5b506103506112f8565b60408051602080825283518183015283519192839290830191858101910280838360005b8381101561038c578181015183820152602001610374565b505050509050019250505060405180910390f35b6000600354116103e15760405162461bcd60e51b81526004018080602001828103825260248152602001806114ef6024913960400191505060405180910390fd5b6000821180156103f357506003548211155b61042e5760405162461bcd60e51b81526004018080602001828103825260238152602001806115396023913960400191505060405180910390fd5b6000828152600260208190526040909120908101546001600160a01b0316156104885760405162461bcd60e51b81526004018080602001828103825260268152602001806115136026913960400191505060405180910390fd5b348160060154146104ca5760405162461bcd60e51b815260040180806020018281038252602b81526020018061149e602b913960400191505060405180910390fd5b60018101546001600160a01b03163314156105165760405162461bcd60e51b81526004018080602001828103825260268152602001806114c96026913960400191505060405180910390fd5b815161052b9060048301906020850190611405565b50600280820180546001600160a01b031916331790556040805163726f636b60e01b602080830191909152825180830360040181526024830190935282519201919091206003840180546000949293919260449092019182918491600019600183161561010002019091160480156105da5780601f106105b85761010080835404028352918201916105da565b820191906000526020600020905b8154815290600101906020018083116105c6575b50509150506040516020818303038152906040528051906020012014801561069f575060405160200180806773636973736f727360c01b815250600801905060405160208183030381529060405280519060200120836040516020018082805190602001908083835b602083106106625780518252601f199092019160209182019101610643565b6001836020036101000a03801982511681845116808217855250505050505090500191505060405160208183030381529060405280519060200120145b156106f05760018201546040516001600160a01b03909116903480156108fc02916000818181858888f193505050501580156106df573d6000803e3d6000fd5b505060018101546001600160a01b03165b60405160200180806773636973736f727360c01b8152506008019050604051602081830303815290604052805190602001208260030160405160200180828054600181600116156101000203166002900480156107845780601f10610762576101008083540402835291820191610784565b820191906000526020600020905b815481529060010190602001808311610770575b50509150506040516020818303038152906040528051906020012014801561084657506040516020018080643830b832b960d91b815250600501905060405160208183030381529060405280519060200120836040516020018082805190602001908083835b602083106108095780518252601f1990920191602091820191016107ea565b6001836020036101000a03801982511681845116808217855250505050505090500191505060405160208183030381529060405280519060200120145b156108975760018201546040516001600160a01b03909116903480156108fc02916000818181858888f19350505050158015610886573d6000803e3d6000fd5b505060018101546001600160a01b03165b6040516020018080643830b832b960d91b8152506005019050604051602081830303815290604052805190602001208260030160405160200180828054600181600116156101000203166002900480156109285780601f10610906576101008083540402835291820191610928565b820191906000526020600020905b815481529060010190602001808311610914575b5050915050604051602081830303815290604052805190602001201480156109e95750604051602001808063726f636b60e01b815250600401905060405160208183030381529060405280519060200120836040516020018082805190602001908083835b602083106109ac5780518252601f19909201916020918201910161098d565b6001836020036101000a03801982511681845116808217855250505050505090500191505060405160208183030381529060405280519060200120145b15610a3a5760018201546040516001600160a01b03909116903480156108fc02916000818181858888f19350505050158015610a29573d6000803e3d6000fd5b505060018101546001600160a01b03165b604051602001808063726f636b60e01b815250600401905060405160208183030381529060405280519060200120826003016040516020018082805460018160011615610100020316600290048015610aca5780601f10610aa8576101008083540402835291820191610aca565b820191906000526020600020905b815481529060010190602001808311610ab6575b505091505060405160208183030381529060405280519060200120148015610b8c57506040516020018080643830b832b960d91b815250600501905060405160208183030381529060405280519060200120836040516020018082805190602001908083835b60208310610b4f5780518252601f199092019160209182019101610b30565b6001836020036101000a03801982511681845116808217855250505050505090500191505060405160208183030381529060405280519060200120145b15610bc25760405133903480156108fc02916000818181858888f19350505050158015610bbd573d6000803e3d6000fd5b503390505b60405160200180806773636973736f727360c01b815250600801905060405160208183030381529060405280519060200120826003016040516020018082805460018160011615610100020316600290048015610c565780601f10610c34576101008083540402835291820191610c56565b820191906000526020600020905b815481529060010190602001808311610c42575b505091505060405160208183030381529060405280519060200120148015610d175750604051602001808063726f636b60e01b815250600401905060405160208183030381529060405280519060200120836040516020018082805190602001908083835b60208310610cda5780518252601f199092019160209182019101610cbb565b6001836020036101000a03801982511681845116808217855250505050505090500191505060405160208183030381529060405280519060200120145b15610d4d5760405133903480156108fc02916000818181858888f19350505050158015610d48573d6000803e3d6000fd5b503390505b6040516020018080643830b832b960d91b815250600501905060405160208183030381529060405280519060200120826003016040516020018082805460018160011615610100020316600290048015610dde5780601f10610dbc576101008083540402835291820191610dde565b820191906000526020600020905b815481529060010190602001808311610dca575b505091505060405160208183030381529060405280519060200120148015610ea3575060405160200180806773636973736f727360c01b815250600801905060405160208183030381529060405280519060200120836040516020018082805190602001908083835b60208310610e665780518252601f199092019160209182019101610e47565b6001836020036101000a03801982511681845116808217855250505050505090500191505060405160208183030381529060405280519060200120145b15610ed95760405133903480156108fc02916000818181858888f19350505050158015610ed4573d6000803e3d6000fd5b503390505b336001600160a01b03168260010160009054906101000a90046001600160a01b03166001600160a01b0316857f0b92364621d4b1a052656cbea08c64dc8990a7c75a1878e1647c785e9a8eca9c8686600301868860060154604051808060200180602001856001600160a01b03166001600160a01b03168152602001848152602001838103835287818151815260200191508051906020019080838360005b83811015610f90578181015183820152602001610f78565b50505050905090810190601f168015610fbd5780820380516001836020036101000a031916815260200191505b508381038252865460026000196101006001841615020190911604808252602090910190879080156110305780601f1061100557610100808354040283529160200191611030565b820191906000526020600020905b81548152906001019060200180831161101357829003601f168201915b5050965050505050505060405180910390a450505050565b6003545b90565b60026020818152600092835260409283902080546001808301548386015460038501805489516101009582161595909502600019011697909704601f810187900487028401870190985287835292966001600160a01b03918216969190931694919290918301828280156111045780601f106110d957610100808354040283529160200191611104565b820191906000526020600020905b8154815290600101906020018083116110e757829003601f168201915b5050505060048301805460408051602060026001851615610100026000190190941693909304601f81018490048402820184019092528181529495949350908301828280156111945780601f1061116957610100808354040283529160200191611194565b820191906000526020600020905b81548152906001019060200180831161117757829003601f168201915b50505050600583015460069093015491926001600160a01b031691905087565b6003805460019081018083556040805160e0810182528281523360208083019182526000838501818152606085018b815286518088018852898152600160fd1b81860152608087015260a0860183905260c086018b905296825260028084529590912084518155925196830180546001600160a01b039889166001600160a01b031991821617909155905194830180549590971694169390931790945591518051929461126993908501929190910190611405565b5060808201518051611285916004840191602090910190611405565b5060a08201516005820180546001600160a01b039092166001600160a01b031990921691909117905560c0909101516006909101556003546040805183815290513392917f61ef06b3f9cfdd32e6610fc2def987121b3f833c573c6544528aa71d2ad7fdba919081900360200190a35050565b606080600354604051908082528060200260200182016040528015611327578160200160208202803883390190505b509050600060015b600354811161138f57600081815260026020819052604090912001546001600160a01b031661138757600081815260026020526040902054835184908490811061137557fe5b60209081029190910101526001909101905b60010161132f565b506060816040519080825280602002602001820160405280156113bc578160200160208202803883390190505b50905060005b828110156113fd578381815181106113d657fe5b60200260200101518282815181106113ea57fe5b60209081029190910101526001016113c2565b509250505090565b828054600181600116156101000203166002900490600052602060002090601f016020900481019282601f1061144657805160ff1916838001178555611473565b82800160010185558215611473579182015b82811115611473578251825591602001919060010190611458565b5061147f929150611483565b5090565b61104c91905b8082111561147f576000815560010161148956fe56616c75652070726f766964656420646f6573206e6f74206d6174636820746865206368616c6c656e67654368616c6c656e6765722063616e6e6f74206368616c6c656e6765207468656d73656c76657354686572652073686f756c64206265206174206c656173742031206368616c6c656e6765536f6d656f6e652068617320616c726561647920776f6e2074686973206368616c6c656e676541727469636c652077697468207468697320696420646f6573206e6f74206578697374a265627a7a72315820dbee161c7cdb43c68693fb156055b169cc1b978db5e0453a7e3f3ecf5cbb629164736f6c63430005100032",
  "source": "pragma solidity >=0.5.0 <0.6.0;\r\n\r\nimport \"./Ownable.sol\";\r\n\r\ncontract RockPaperScissors is Ownable {\r\n    //Constructor\r\n    constructor() public {\r\n        owner = msg.sender;\r\n    }\r\n\r\n    //modifier\r\n    modifier onlyOwner() {\r\n        require(msg.sender == owner);\r\n        _;\r\n    }\r\n\r\n    //deactivate the contract\r\n//    function kill() public onlyOwner {\r\n//        selfdestruct(owner);\r\n//    }\r\n\r\n    //Types for the Challenge\r\n    struct Challenge {\r\n        uint id;\r\n        address payable challengeCreator;\r\n        address payable challenger;\r\n        string challengeCreatorChoice;\r\n        string challengerChoice;\r\n        address winner;\r\n        uint256 price;\r\n    }\r\n\r\n    //state variables\r\n    address owner;\r\n    mapping(uint => Challenge) public challenges;\r\n    uint challengeCounter;\r\n\r\n    //events\r\n    event LogPostChallenge(\r\n        uint indexed _id,\r\n        address indexed _challengeCreator,\r\n        uint256 _price\r\n    );\r\n\r\n    event LogChallenge(\r\n        uint indexed _id,\r\n        address indexed _challengeCreator,\r\n        address indexed _challenger,\r\n        string _challengerChoice,\r\n        string _challengeCreatorChoice,\r\n        address _winner,\r\n        uint256 _price\r\n    );\r\n\r\n    //create a challenge\r\n    function createChallenge(string memory _choice, uint256 _price) public {\r\n        //new challenge\r\n        challengeCounter++;\r\n\r\n        //store the challenge\r\n        challenges[challengeCounter] = Challenge(\r\n            challengeCounter,\r\n            msg.sender,\r\n            address(0),\r\n            _choice,\r\n            ' ',\r\n            address(0),\r\n            _price\r\n        );\r\n\r\n        emit LogPostChallenge(challengeCounter, msg.sender, _price);\r\n    }\r\n\r\n    //fetch number of challenges in the contract\r\n    function getNumberOfChallenges() public view returns (uint) {\r\n        return challengeCounter;\r\n    }\r\n\r\n    //fetch and return all challenge ids that are still available\r\n    function getChallengesStillAvailable() public view returns (uint[] memory) {\r\n        uint[] memory challengeIds = new uint[](challengeCounter);\r\n\r\n        uint numberOfChallengesAvailable = 0;\r\n\r\n        for (uint i = 1; i <= challengeCounter; i++) {\r\n            //keep id if still up for a challenge\r\n            if (challenges[i].challenger == address(0)) {\r\n                challengeIds[numberOfChallengesAvailable] = challenges[i].id;\r\n                numberOfChallengesAvailable++;\r\n            }\r\n        }\r\n\r\n        //copy all the challenges into a smaller array\r\n        uint[] memory upForChallenge = new uint[](numberOfChallengesAvailable);\r\n\r\n        for (uint j = 0; j<numberOfChallengesAvailable; j++) {\r\n            upForChallenge[j] = challengeIds[j];\r\n        }\r\n\r\n        return upForChallenge;\r\n    }\r\n\r\n    //accept a challenge\r\n    function acceptChallenge(uint _id, string memory _choice) public payable {\r\n        //check whether there is at least one challenge\r\n        require(challengeCounter > 0, \"There should be at least 1 challenge\");\r\n\r\n        //check whether the challenge exists\r\n        require(_id > 0 && _id <= challengeCounter, \"Article with this id does not exist\");\r\n\r\n        //retrieve the challenge\r\n        Challenge storage challenge = challenges[_id];\r\n\r\n        //check whether the challenge has already been completed\r\n        require(challenge.challenger == address(0), \"Someone has already won this challenge\");\r\n\r\n        //check whether the value sent corresponds to the value of the challenge\r\n        require(challenge.price == msg.value, \"Value provided does not match the challenge\");\r\n\r\n        //check if the challenger is trying to challenge themselves\r\n        require(challenge.challengeCreator != msg.sender, \"Challenger cannot challenge themselves\");\r\n\r\n        //save the challenger's choice\r\n        challenge.challengerChoice = _choice;\r\n\r\n        //save the challenger\r\n        challenge.challenger = msg.sender;\r\n\r\n        //check who won, ties will keep the address 0 as winner\r\n        address winner = address(0);\r\n\r\n        //challenge creator won, send winning to challenger\r\n        if (keccak256(abi.encodePacked(challenge.challengeCreatorChoice)) == keccak256(abi.encodePacked('rock')) && keccak256(abi.encodePacked(_choice)) == keccak256(abi.encodePacked('scissors'))) {\r\n            challenge.challengeCreator.transfer(msg.value);\r\n            winner = challenge.challengeCreator;\r\n\r\n        }\r\n\r\n        if (keccak256(abi.encodePacked(challenge.challengeCreatorChoice)) == keccak256(abi.encodePacked('scissors')) && keccak256(abi.encodePacked(_choice)) == keccak256(abi.encodePacked('paper'))) {\r\n            challenge.challengeCreator.transfer(msg.value);\r\n            winner = challenge.challengeCreator;\r\n        }\r\n\r\n        if (keccak256(abi.encodePacked(challenge.challengeCreatorChoice)) == keccak256(abi.encodePacked('paper')) && keccak256(abi.encodePacked(_choice)) == keccak256(abi.encodePacked('rock'))) {\r\n            challenge.challengeCreator.transfer(msg.value);\r\n            winner = challenge.challengeCreator;\r\n        }\r\n\r\n        //challenger won, send winnings to challenge\r\n        if (keccak256(abi.encodePacked(challenge.challengeCreatorChoice)) == keccak256(abi.encodePacked('rock')) && keccak256(abi.encodePacked(_choice)) == keccak256(abi.encodePacked('paper'))) {\r\n            msg.sender.transfer(msg.value);\r\n            winner = msg.sender;\r\n        }\r\n\r\n        if (keccak256(abi.encodePacked(challenge.challengeCreatorChoice)) == keccak256(abi.encodePacked('scissors')) && keccak256(abi.encodePacked(_choice)) == keccak256(abi.encodePacked('rock'))) {\r\n            msg.sender.transfer(msg.value);\r\n            winner = msg.sender;\r\n        }\r\n\r\n        if (keccak256(abi.encodePacked(challenge.challengeCreatorChoice)) == keccak256(abi.encodePacked('paper')) && keccak256(abi.encodePacked(_choice)) == keccak256(abi.encodePacked('scissors'))) {\r\n            msg.sender.transfer(msg.value);\r\n            winner = msg.sender;\r\n        }\r\n\r\n    emit LogChallenge(_id, challenge.challengeCreator, msg.sender, _choice, challenge.challengeCreatorChoice, winner, challenge.price);\r\n    }\r\n\r\n}",
  "sourcePath": "D:\\WebStormProjects\\Truff5WithReact\\contracts\\RockPaperScissors.sol",
  "compiler": {
    "name": "solc",
    "version": "0.5.16+commit.9c3226ce.Emscripten.clang"
  },
  "schemaVersion": "3.1.0",
  "updatedAt": "2020-04-22T06:56:39.568Z",
  "devdoc": {
    "methods": {}
  },
  "userdoc": {
    "methods": {}
  }
}